{
  "contractName": "DematContract",
  "abi": [
    {
      "inputs": [],
      "stateMutability": "nonpayable",
      "type": "constructor"
    },
    {
      "inputs": [
        {
          "internalType": "string",
          "name": "_aadhar_number",
          "type": "string"
        }
      ],
      "name": "validateUser",
      "outputs": [
        {
          "internalType": "bool",
          "name": "",
          "type": "bool"
        }
      ],
      "stateMutability": "view",
      "type": "function"
    },
    {
      "inputs": [
        {
          "internalType": "string",
          "name": "_aadhar_number",
          "type": "string"
        }
      ],
      "name": "getUserDetails",
      "outputs": [
        {
          "internalType": "string",
          "name": "",
          "type": "string"
        },
        {
          "internalType": "string",
          "name": "",
          "type": "string"
        },
        {
          "internalType": "string",
          "name": "",
          "type": "string"
        },
        {
          "internalType": "uint256",
          "name": "",
          "type": "uint256"
        },
        {
          "internalType": "string",
          "name": "",
          "type": "string"
        },
        {
          "internalType": "string",
          "name": "",
          "type": "string"
        },
        {
          "internalType": "string",
          "name": "",
          "type": "string"
        }
      ],
      "stateMutability": "view",
      "type": "function"
    }
  ],
  "bytecode": "0x60806040527378469c63d142cac46373d714d896e20dd46cb5066000806101000a81548173ffffffffffffffffffffffffffffffffffffffff021916908373ffffffffffffffffffffffffffffffffffffffff16021790555034801561006457600080fd5b5060008054906101000a900473ffffffffffffffffffffffffffffffffffffffff16600160006101000a81548173ffffffffffffffffffffffffffffffffffffffff021916908373ffffffffffffffffffffffffffffffffffffffff1602179055506107c7806100d56000396000f3fe608060405234801561001057600080fd5b50600436106100365760003560e01c8063085ba0741461003b578063b08eff9314610071575b600080fd5b61005560048036038101906100509190610377565b6100a1565b6040516100689796959493929190610461565b60405180910390f35b61008b60048036038101906100869190610377565b610167565b6040516100989190610515565b60405180910390f35b606080606060006060806060600160009054906101000a900473ffffffffffffffffffffffffffffffffffffffff1673ffffffffffffffffffffffffffffffffffffffff166331feb671896040518263ffffffff1660e01b81526004016101089190610530565b600060405180830381865afa158015610125573d6000803e3d6000fd5b505050506040513d6000823e3d601f19601f8201168201806040525081019061014e91906105ee565b9650965096509650965096509650919395979092949650565b6000600160009054906101000a900473ffffffffffffffffffffffffffffffffffffffff1673ffffffffffffffffffffffffffffffffffffffff1663b08eff93836040518263ffffffff1660e01b81526004016101c49190610530565b602060405180830381865afa1580156101e1573d6000803e3d6000fd5b505050506040513d601f19601f820116820180604052508101906102059190610764565b156102135760019050610218565b600090505b919050565b6000604051905090565b600080fd5b600080fd5b600080fd5b600080fd5b6000601f19601f8301169050919050565b7f4e487b7100000000000000000000000000000000000000000000000000000000600052604160045260246000fd5b6102848261023b565b810181811067ffffffffffffffff821117156102a3576102a261024c565b5b80604052505050565b60006102b661021d565b90506102c2828261027b565b919050565b600067ffffffffffffffff8211156102e2576102e161024c565b5b6102eb8261023b565b9050602081019050919050565b82818337600083830152505050565b600061031a610315846102c7565b6102ac565b90508281526020810184848401111561033657610335610236565b5b6103418482856102f8565b509392505050565b600082601f83011261035e5761035d610231565b5b813561036e848260208601610307565b91505092915050565b60006020828403121561038d5761038c610227565b5b600082013567ffffffffffffffff8111156103ab576103aa61022c565b5b6103b784828501610349565b91505092915050565b600081519050919050565b600082825260208201905092915050565b60005b838110156103fa5780820151818401526020810190506103df565b83811115610409576000848401525b50505050565b600061041a826103c0565b61042481856103cb565b93506104348185602086016103dc565b61043d8161023b565b840191505092915050565b6000819050919050565b61045b81610448565b82525050565b600060e082019050818103600083015261047b818a61040f565b9050818103602083015261048f818961040f565b905081810360408301526104a3818861040f565b90506104b26060830187610452565b81810360808301526104c4818661040f565b905081810360a08301526104d8818561040f565b905081810360c08301526104ec818461040f565b905098975050505050505050565b60008115159050919050565b61050f816104fa565b82525050565b600060208201905061052a6000830184610506565b92915050565b6000602082019050818103600083015261054a818461040f565b905092915050565b6000610565610560846102c7565b6102ac565b90508281526020810184848401111561058157610580610236565b5b61058c8482856103dc565b509392505050565b600082601f8301126105a9576105a8610231565b5b81516105b9848260208601610552565b91505092915050565b6105cb81610448565b81146105d657600080fd5b50565b6000815190506105e8816105c2565b92915050565b600080600080600080600060e0888a03121561060d5761060c610227565b5b600088015167ffffffffffffffff81111561062b5761062a61022c565b5b6106378a828b01610594565b975050602088015167ffffffffffffffff8111156106585761065761022c565b5b6106648a828b01610594565b965050604088015167ffffffffffffffff8111156106855761068461022c565b5b6106918a828b01610594565b95505060606106a28a828b016105d9565b945050608088015167ffffffffffffffff8111156106c3576106c261022c565b5b6106cf8a828b01610594565b93505060a088015167ffffffffffffffff8111156106f0576106ef61022c565b5b6106fc8a828b01610594565b92505060c088015167ffffffffffffffff81111561071d5761071c61022c565b5b6107298a828b01610594565b91505092959891949750929550565b610741816104fa565b811461074c57600080fd5b50565b60008151905061075e81610738565b92915050565b60006020828403121561077a57610779610227565b5b60006107888482850161074f565b9150509291505056fea26469706673582212208eeb7e24acf9551c31ffd3dabb3e973eba1ff4c84121558148fc18747ada454d64736f6c634300080a0033",
  "immutableReferences": {},
  "source": "// SPDX-License-Identifier: MIT\r\npragma solidity ^0.8.10 ;\r\nimport \"./KycContract.sol\" ;\r\n\r\ncontract DematContract \r\n{\r\n    address kycaddress = 0x78469c63d142caC46373D714d896E20Dd46cB506;\r\n    KycContract user;\r\n\r\n    constructor ()\r\n    {\r\n        user = KycContract(kycaddress);\r\n    }  \r\n     \r\n    function validateUser(string memory _aadhar_number) view public returns(bool)\r\n    {\r\n        if (user.validateUser(_aadhar_number))\r\n            return true ;\r\n        else return false ;    \r\n    }\r\n\r\n    function getUserDetails(string memory _aadhar_number) view public returns (string memory ,string memory, string memory, uint, string memory, string memory, string memory)\r\n    {\r\n        return (user.getUser(_aadhar_number)) ;\r\n    } \r\n}",
  "sourcePath": "C:\\Users\\maver\\Desktop\\Mini Project Files\\ethereum-frontend-main\\ethereum-frontend-main\\contracts\\DematContract.sol",
  "compiler": {
    "name": "solc",
    "version": "0.8.10+commit.fc410830.Emscripten.clang"
  },
  "schemaVersion": "3.4.4",
  "updatedAt": "2022-01-13T11:06:04.828Z",
  "devdoc": {
    "kind": "dev",
    "methods": {},
    "version": 1
  },
  "userdoc": {
    "kind": "user",
    "methods": {},
    "version": 1
  }
}