{
  "contractName": "KycContract",
  "abi": [
    {
      "inputs": [
        {
          "internalType": "string",
          "name": "_fullname",
          "type": "string"
        },
        {
          "internalType": "string",
          "name": "_fathername",
          "type": "string"
        },
        {
          "internalType": "string",
          "name": "_aadhar_number",
          "type": "string"
        },
        {
          "internalType": "uint256",
          "name": "_phone_number",
          "type": "uint256"
        },
        {
          "internalType": "string",
          "name": "_location",
          "type": "string"
        },
        {
          "internalType": "string",
          "name": "_gender",
          "type": "string"
        },
        {
          "internalType": "string",
          "name": "_dob",
          "type": "string"
        }
      ],
      "name": "setUser",
      "outputs": [],
      "stateMutability": "nonpayable",
      "type": "function"
    },
    {
      "inputs": [
        {
          "internalType": "string",
          "name": "_aadhar_number",
          "type": "string"
        }
      ],
      "name": "getUser",
      "outputs": [
        {
          "internalType": "string",
          "name": "",
          "type": "string"
        },
        {
          "internalType": "string",
          "name": "",
          "type": "string"
        },
        {
          "internalType": "string",
          "name": "",
          "type": "string"
        },
        {
          "internalType": "uint256",
          "name": "",
          "type": "uint256"
        },
        {
          "internalType": "string",
          "name": "",
          "type": "string"
        },
        {
          "internalType": "string",
          "name": "",
          "type": "string"
        },
        {
          "internalType": "string",
          "name": "",
          "type": "string"
        }
      ],
      "stateMutability": "view",
      "type": "function"
    },
    {
      "inputs": [
        {
          "internalType": "string",
          "name": "_aadhar_number",
          "type": "string"
        }
      ],
      "name": "validateUser",
      "outputs": [
        {
          "internalType": "bool",
          "name": "",
          "type": "bool"
        }
      ],
      "stateMutability": "view",
      "type": "function"
    }
  ],
  "bytecode": "0x608060405234801561001057600080fd5b506113f6806100206000396000f3fe608060405234801561001057600080fd5b50600436106100415760003560e01c806331feb67114610046578063b08eff931461007c578063c7781b8a146100ac575b600080fd5b610060600480360381019061005b9190610ba6565b6100c8565b6040516100739796959493929190610c90565b60405180910390f35b61009660048036038101906100919190610ba6565b61051d565b6040516100a39190610d44565b60405180910390f35b6100c660048036038101906100c19190610d8b565b6105a6565b005b6060806060600060608060606000886040516100e49190610f11565b90815260200160405180910390206000016000896040516101059190610f11565b908152602001604051809103902060010160008a6040516101269190610f11565b908152602001604051809103902060020160008b6040516101479190610f11565b90815260200160405180910390206003015460008c6040516101699190610f11565b908152602001604051809103902060040160008d60405161018a9190610f11565b908152602001604051809103902060050160008e6040516101ab9190610f11565b90815260200160405180910390206006018680546101c890610f57565b80601f01602080910402602001604051908101604052809291908181526020018280546101f490610f57565b80156102415780601f1061021657610100808354040283529160200191610241565b820191906000526020600020905b81548152906001019060200180831161022457829003601f168201915b5050505050965085805461025490610f57565b80601f016020809104026020016040519081016040528092919081815260200182805461028090610f57565b80156102cd5780601f106102a2576101008083540402835291602001916102cd565b820191906000526020600020905b8154815290600101906020018083116102b057829003601f168201915b505050505095508480546102e090610f57565b80601f016020809104026020016040519081016040528092919081815260200182805461030c90610f57565b80156103595780601f1061032e57610100808354040283529160200191610359565b820191906000526020600020905b81548152906001019060200180831161033c57829003601f168201915b5050505050945082805461036c90610f57565b80601f016020809104026020016040519081016040528092919081815260200182805461039890610f57565b80156103e55780601f106103ba576101008083540402835291602001916103e5565b820191906000526020600020905b8154815290600101906020018083116103c857829003601f168201915b505050505092508180546103f890610f57565b80601f016020809104026020016040519081016040528092919081815260200182805461042490610f57565b80156104715780601f1061044657610100808354040283529160200191610471565b820191906000526020600020905b81548152906001019060200180831161045457829003601f168201915b5050505050915080805461048490610f57565b80601f01602080910402602001604051908101604052809291908181526020018280546104b090610f57565b80156104fd5780601f106104d2576101008083540402835291602001916104fd565b820191906000526020600020905b8154815290600101906020018083116104e057829003601f168201915b505050505090509650965096509650965096509650919395979092949650565b6000816040516020016105309190610f11565b604051602081830303815290604052805190602001206000836040516105569190610f11565b9081526020016040518091039020600201604051602001610577919061101d565b60405160208183030381529060405280519060200120141561059c57600190506105a1565b600090505b919050565b846040516020016105b79190610f11565b604051602081830303815290604052805190602001206000866040516105dd9190610f11565b90815260200160405180910390206002016040516020016105fe919061101d565b60405160208183030381529060405280519060200120141561061f57600080fd5b846000866040516106309190610f11565b908152602001604051809103902060020190805190602001906106549291906109a9565b50866000866040516106669190610f11565b9081526020016040518091039020600001908051906020019061068a9291906109a9565b508560008660405161069c9190610f11565b908152602001604051809103902060010190805190602001906106c09291906109a9565b50836000866040516106d29190610f11565b908152602001604051809103902060030181905550826000866040516106f89190610f11565b9081526020016040518091039020600401908051906020019061071c9291906109a9565b508160008660405161072e9190610f11565b908152602001604051809103902060050190805190602001906107529291906109a9565b50806000866040516107649190610f11565b908152602001604051809103902060060190805190602001906107889291906109a9565b506001859080600181540180825580915050600190039060005260206000200160009091909190915090805190602001906107c49291906109a9565b506000855111610809576040517f08c379a0000000000000000000000000000000000000000000000000000000008152600401610800906110a6565b60405180910390fd5b600087511161084d576040517f08c379a000000000000000000000000000000000000000000000000000000000815260040161084490611138565b60405180910390fd5b6000865111610891576040517f08c379a0000000000000000000000000000000000000000000000000000000008152600401610888906111ca565b60405180910390fd5b600084116108d4576040517f08c379a00000000000000000000000000000000000000000000000000000000081526004016108cb9061125c565b60405180910390fd5b6000835111610918576040517f08c379a000000000000000000000000000000000000000000000000000000000815260040161090f906112c8565b60405180910390fd5b600082511161095c576040517f08c379a000000000000000000000000000000000000000000000000000000000815260040161095390611334565b60405180910390fd5b60008151116109a0576040517f08c379a0000000000000000000000000000000000000000000000000000000008152600401610997906113a0565b60405180910390fd5b50505050505050565b8280546109b590610f57565b90600052602060002090601f0160209004810192826109d75760008555610a1e565b82601f106109f057805160ff1916838001178555610a1e565b82800160010185558215610a1e579182015b82811115610a1d578251825591602001919060010190610a02565b5b509050610a2b9190610a2f565b5090565b5b80821115610a48576000816000905550600101610a30565b5090565b6000604051905090565b600080fd5b600080fd5b600080fd5b600080fd5b6000601f19601f8301169050919050565b7f4e487b7100000000000000000000000000000000000000000000000000000000600052604160045260246000fd5b610ab382610a6a565b810181811067ffffffffffffffff82111715610ad257610ad1610a7b565b5b80604052505050565b6000610ae5610a4c565b9050610af18282610aaa565b919050565b600067ffffffffffffffff821115610b1157610b10610a7b565b5b610b1a82610a6a565b9050602081019050919050565b82818337600083830152505050565b6000610b49610b4484610af6565b610adb565b905082815260208101848484011115610b6557610b64610a65565b5b610b70848285610b27565b509392505050565b600082601f830112610b8d57610b8c610a60565b5b8135610b9d848260208601610b36565b91505092915050565b600060208284031215610bbc57610bbb610a56565b5b600082013567ffffffffffffffff811115610bda57610bd9610a5b565b5b610be684828501610b78565b91505092915050565b600081519050919050565b600082825260208201905092915050565b60005b83811015610c29578082015181840152602081019050610c0e565b83811115610c38576000848401525b50505050565b6000610c4982610bef565b610c538185610bfa565b9350610c63818560208601610c0b565b610c6c81610a6a565b840191505092915050565b6000819050919050565b610c8a81610c77565b82525050565b600060e0820190508181036000830152610caa818a610c3e565b90508181036020830152610cbe8189610c3e565b90508181036040830152610cd28188610c3e565b9050610ce16060830187610c81565b8181036080830152610cf38186610c3e565b905081810360a0830152610d078185610c3e565b905081810360c0830152610d1b8184610c3e565b905098975050505050505050565b60008115159050919050565b610d3e81610d29565b82525050565b6000602082019050610d596000830184610d35565b92915050565b610d6881610c77565b8114610d7357600080fd5b50565b600081359050610d8581610d5f565b92915050565b600080600080600080600060e0888a031215610daa57610da9610a56565b5b600088013567ffffffffffffffff811115610dc857610dc7610a5b565b5b610dd48a828b01610b78565b975050602088013567ffffffffffffffff811115610df557610df4610a5b565b5b610e018a828b01610b78565b965050604088013567ffffffffffffffff811115610e2257610e21610a5b565b5b610e2e8a828b01610b78565b9550506060610e3f8a828b01610d76565b945050608088013567ffffffffffffffff811115610e6057610e5f610a5b565b5b610e6c8a828b01610b78565b93505060a088013567ffffffffffffffff811115610e8d57610e8c610a5b565b5b610e998a828b01610b78565b92505060c088013567ffffffffffffffff811115610eba57610eb9610a5b565b5b610ec68a828b01610b78565b91505092959891949750929550565b600081905092915050565b6000610eeb82610bef565b610ef58185610ed5565b9350610f05818560208601610c0b565b80840191505092915050565b6000610f1d8284610ee0565b915081905092915050565b7f4e487b7100000000000000000000000000000000000000000000000000000000600052602260045260246000fd5b60006002820490506001821680610f6f57607f821691505b60208210811415610f8357610f82610f28565b5b50919050565b60008190508160005260206000209050919050565b60008154610fab81610f57565b610fb58186610ed5565b94506001821660008114610fd05760018114610fe157611014565b60ff19831686528186019350611014565b610fea85610f89565b60005b8381101561100c57815481890152600182019150602081019050610fed565b838801955050505b50505092915050565b60006110298284610f9e565b915081905092915050565b7f4e6f204461746120466f756e642e20456e74657220596f75722061616468617260008201527f5f6e756d6265722e000000000000000000000000000000000000000000000000602082015250565b6000611090602883610bfa565b915061109b82611034565b604082019050919050565b600060208201905081810360008301526110bf81611083565b9050919050565b7f4e6f204461746120466f756e642e20456e74657220596f75722066756c6c6e6160008201527f6d652e0000000000000000000000000000000000000000000000000000000000602082015250565b6000611122602383610bfa565b915061112d826110c6565b604082019050919050565b6000602082019050818103600083015261115181611115565b9050919050565b7f4e6f204461746120466f756e642c20456e74657220596f75722066617468657260008201527f6e616d652e000000000000000000000000000000000000000000000000000000602082015250565b60006111b4602583610bfa565b91506111bf82611158565b604082019050919050565b600060208201905081810360008301526111e3816111a7565b9050919050565b7f4e6f204461746120466f756e642c20456e74657220596f75722070686f6e652060008201527f6e756d6265722e00000000000000000000000000000000000000000000000000602082015250565b6000611246602783610bfa565b9150611251826111ea565b604082019050919050565b6000602082019050818103600083015261127581611239565b9050919050565b7f4e6f204461746120466f756e642c20456e746572206c6f636174696f6e2e0000600082015250565b60006112b2601e83610bfa565b91506112bd8261127c565b602082019050919050565b600060208201905081810360008301526112e1816112a5565b9050919050565b7f4e6f204461746120466f756e642e20456e7465722067656e6465722e00000000600082015250565b600061131e601c83610bfa565b9150611329826112e8565b602082019050919050565b6000602082019050818103600083015261134d81611311565b9050919050565b7f4e6f204461746120466f756e642e20456e74657220596f757220444f42000000600082015250565b600061138a601d83610bfa565b915061139582611354565b602082019050919050565b600060208201905081810360008301526113b98161137d565b905091905056fea2646970667358221220e5c66cd06267bc9342d453a2f0da703c2bf02c6820859ff3d5f937b675dd508e64736f6c634300080a0033",
  "immutableReferences": {},
  "source": "// SPDX-License-Identifier: MIT\npragma solidity ^0.8.10;\n \ncontract KycContract {\n \n    struct aadharDetails\n    {\n        string fullname;\n        string fathername;\n        string aadhar_number;\n        uint phone_number;\n        string location;\n        string gender;\n        string dob;\n    }\n\n    // Mappping\n    mapping(string =>aadharDetails) userMap;\n\n    // Initializing array\n    string[] UsersArray ;\n\n    // set Function for setUser   \n    function setUser\n    (\n        string memory _fullname,\n        string memory _fathername,\n        string memory _aadhar_number,\n        uint _phone_number,\n        string memory _location,\n        string memory _gender,\n        string memory _dob\n    )\n \n    public\n    {\n        require(keccak256(abi.encodePacked((userMap[_aadhar_number].aadhar_number)))\n                        != keccak256(abi.encodePacked(_aadhar_number)));\n\n        userMap[_aadhar_number].aadhar_number = _aadhar_number ;\n        userMap[_aadhar_number].fullname = _fullname ;\n        userMap[_aadhar_number].fathername = _fathername ;\n        userMap[_aadhar_number].phone_number = _phone_number ;\n        userMap[_aadhar_number].location = _location ;\n        userMap[_aadhar_number].gender = _gender ;\n        userMap[_aadhar_number].dob = _dob ;\n \n        UsersArray.push(_aadhar_number) ;\n\n        require(bytes(_aadhar_number).length > 0, \"No Data Found. Enter Your aadhar_number.\");\n        require(bytes(_fullname).length > 0, \"No Data Found. Enter Your fullname.\");\n        require(bytes(_fathername).length > 0, \"No Data Found, Enter Your fathername.\");\n        require(uint(_phone_number) > 0, \"No Data Found, Enter Your phone number.\");\n        require(bytes(_location).length > 0, \"No Data Found, Enter location.\");\n        require(bytes(_gender).length > 0, \"No Data Found. Enter gender.\");\n        require(bytes(_dob).length > 0, \"No Data Found. Enter Your DOB\");\n    }\n \n    function getUser(string memory _aadhar_number) view public returns(string memory ,string memory, string memory, uint, string memory, string memory, string memory)\n    {\n        return\n        (\n            userMap[_aadhar_number].fullname,\n            userMap[_aadhar_number].fathername,\n            userMap[_aadhar_number].aadhar_number,\n            userMap[_aadhar_number].phone_number,\n            userMap[_aadhar_number].location,\n            userMap[_aadhar_number].gender,\n            userMap[_aadhar_number].dob\n        );\n    }\n \n    function validateUser(string memory _aadhar_number) view public returns(bool)\n    {\n        if (keccak256(abi.encodePacked((userMap[_aadhar_number].aadhar_number))) == keccak256(abi.encodePacked(_aadhar_number)))\n            return true ;\n        else return false ;\n    }\n}",
  "sourcePath": "C:\\Users\\maver\\Desktop\\Mini Project Files\\ethereum-frontend-main\\ethereum-frontend-main\\contracts\\KycContract.sol",
  "compiler": {
    "name": "solc",
    "version": "0.8.10+commit.fc410830.Emscripten.clang"
  },
  "schemaVersion": "3.4.4",
  "updatedAt": "2022-01-14T09:09:09.179Z",
  "devdoc": {
    "kind": "dev",
    "methods": {},
    "version": 1
  },
  "userdoc": {
    "kind": "user",
    "methods": {},
    "version": 1
  }
}