{
  "contractName": "KycContract",
  "abi": [
    {
      "inputs": [
        {
          "internalType": "string",
          "name": "_fullname",
          "type": "string"
        },
        {
          "internalType": "string",
          "name": "_fathername",
          "type": "string"
        },
        {
          "internalType": "string",
          "name": "_aadhar_number",
          "type": "string"
        },
        {
          "internalType": "uint256",
          "name": "_phone_number",
          "type": "uint256"
        },
        {
          "internalType": "string",
          "name": "_useraddress",
          "type": "string"
        },
        {
          "internalType": "string",
          "name": "_gender",
          "type": "string"
        },
        {
          "internalType": "string",
          "name": "_dob",
          "type": "string"
        }
      ],
      "name": "setRegisteredUser",
      "outputs": [],
      "stateMutability": "nonpayable",
      "type": "function"
    },
    {
      "inputs": [
        {
          "internalType": "string",
          "name": "_fullname",
          "type": "string"
        },
        {
          "internalType": "string",
          "name": "_fathername",
          "type": "string"
        },
        {
          "internalType": "string",
          "name": "_aadhar_number",
          "type": "string"
        },
        {
          "internalType": "uint256",
          "name": "_phone_number",
          "type": "uint256"
        },
        {
          "internalType": "string",
          "name": "_useraddress",
          "type": "string"
        },
        {
          "internalType": "string",
          "name": "_gender",
          "type": "string"
        },
        {
          "internalType": "string",
          "name": "_dob",
          "type": "string"
        }
      ],
      "name": "setVerifiedUser",
      "outputs": [],
      "stateMutability": "nonpayable",
      "type": "function"
    },
    {
      "inputs": [
        {
          "internalType": "string",
          "name": "_aadhar_number",
          "type": "string"
        }
      ],
      "name": "getRegisteredUser",
      "outputs": [
        {
          "internalType": "string",
          "name": "",
          "type": "string"
        },
        {
          "internalType": "string",
          "name": "",
          "type": "string"
        },
        {
          "internalType": "string",
          "name": "",
          "type": "string"
        },
        {
          "internalType": "uint256",
          "name": "",
          "type": "uint256"
        },
        {
          "internalType": "string",
          "name": "",
          "type": "string"
        },
        {
          "internalType": "string",
          "name": "",
          "type": "string"
        },
        {
          "internalType": "string",
          "name": "",
          "type": "string"
        }
      ],
      "stateMutability": "view",
      "type": "function"
    },
    {
      "inputs": [
        {
          "internalType": "string",
          "name": "_aadhar_number",
          "type": "string"
        }
      ],
      "name": "getVerifiedUser",
      "outputs": [
        {
          "internalType": "string",
          "name": "",
          "type": "string"
        },
        {
          "internalType": "string",
          "name": "",
          "type": "string"
        },
        {
          "internalType": "string",
          "name": "",
          "type": "string"
        },
        {
          "internalType": "uint256",
          "name": "",
          "type": "uint256"
        },
        {
          "internalType": "string",
          "name": "",
          "type": "string"
        },
        {
          "internalType": "string",
          "name": "",
          "type": "string"
        },
        {
          "internalType": "string",
          "name": "",
          "type": "string"
        }
      ],
      "stateMutability": "view",
      "type": "function"
    },
    {
      "inputs": [
        {
          "internalType": "string",
          "name": "_aadhar_number",
          "type": "string"
        }
      ],
      "name": "checkVerifiedUser",
      "outputs": [
        {
          "internalType": "bool",
          "name": "",
          "type": "bool"
        }
      ],
      "stateMutability": "view",
      "type": "function"
    },
    {
      "inputs": [
        {
          "internalType": "string",
          "name": "_aadhar_number",
          "type": "string"
        }
      ],
      "name": "checkRegisteredUser",
      "outputs": [
        {
          "internalType": "bool",
          "name": "",
          "type": "bool"
        }
      ],
      "stateMutability": "view",
      "type": "function"
    },
    {
      "inputs": [],
      "name": "getCountOfRegisteredUsers",
      "outputs": [
        {
          "internalType": "uint256",
          "name": "",
          "type": "uint256"
        }
      ],
      "stateMutability": "view",
      "type": "function"
    },
    {
      "inputs": [],
      "name": "getCountOfVerifiedUsers",
      "outputs": [
        {
          "internalType": "uint256",
          "name": "",
          "type": "uint256"
        }
      ],
      "stateMutability": "view",
      "type": "function"
    },
    {
      "inputs": [],
      "name": "getAllRegisteredIDs",
      "outputs": [
        {
          "internalType": "string[]",
          "name": "",
          "type": "string[]"
        }
      ],
      "stateMutability": "view",
      "type": "function"
    },
    {
      "inputs": [],
      "name": "getAllVerifiedIDs",
      "outputs": [
        {
          "internalType": "string[]",
          "name": "",
          "type": "string[]"
        }
      ],
      "stateMutability": "view",
      "type": "function"
    }
  ],
  "bytecode": "0x608060405234801561001057600080fd5b50611a01806100206000396000f3fe608060405234801561001057600080fd5b506004361061009e5760003560e01c806383ae00e21161006657806383ae00e21461014f5780638ca78ab9146101855780639b30a9c0146101b55780639f2c69ac146101e5578063c1060d8c146102015761009e565b8063145a58ac146100a357806317836879146100c15780631d77e370146100df57806340a4ad58146100fb578063503e111814610131575b600080fd5b6100ab61021f565b6040516100b891906112b3565b60405180910390f35b6100c961022c565b6040516100d69190611429565b60405180910390f35b6100f960048036038101906100f491906115c0565b610305565b005b6101156004803603810190610110919061170a565b61052d565b604051610128979695949392919061179d565b60405180910390f35b610139610982565b6040516101469190611429565b60405180910390f35b6101696004803603810190610164919061170a565b610a5b565b60405161017c979695949392919061179d565b60405180910390f35b61019f600480360381019061019a919061170a565b610eb0565b6040516101ac9190611851565b60405180910390f35b6101cf60048036038101906101ca919061170a565b610f39565b6040516101dc9190611851565b60405180910390f35b6101ff60048036038101906101fa91906115c0565b610fc2565b005b6102096111ea565b60405161021691906112b3565b60405180910390f35b6000600380549050905090565b60606003805480602002602001604051908101604052809291908181526020016000905b828210156102fc57838290600052602060002001805461026f9061189b565b80601f016020809104026020016040519081016040528092919081815260200182805461029b9061189b565b80156102e85780601f106102bd576101008083540402835291602001916102e8565b820191906000526020600020905b8154815290600101906020018083116102cb57829003601f168201915b505050505081526020019060010190610250565b50505050905090565b846040516020016103169190611909565b6040516020818303038152906040528051906020012060008660405161033c9190611909565b908152602001604051809103902060020160405160200161035d91906119b4565b60405160208183030381529060405280519060200120141561037e57600080fd5b8660008660405161038f9190611909565b908152602001604051809103902060000190805190602001906103b39291906111f7565b50856000866040516103c59190611909565b908152602001604051809103902060010190805190602001906103e99291906111f7565b50846000866040516103fb9190611909565b9081526020016040518091039020600201908051906020019061041f9291906111f7565b50836000866040516104319190611909565b908152602001604051809103902060030181905550826000866040516104579190611909565b9081526020016040518091039020600401908051906020019061047b9291906111f7565b508160008660405161048d9190611909565b908152602001604051809103902060050190805190602001906104b19291906111f7565b50806000866040516104c39190611909565b908152602001604051809103902060060190805190602001906104e79291906111f7565b506002859080600181540180825580915050600190039060005260206000200160009091909190915090805190602001906105239291906111f7565b5050505050505050565b6060806060600060608060606001886040516105499190611909565b908152602001604051809103902060000160018960405161056a9190611909565b908152602001604051809103902060010160018a60405161058b9190611909565b908152602001604051809103902060020160018b6040516105ac9190611909565b90815260200160405180910390206003015460018c6040516105ce9190611909565b908152602001604051809103902060040160018d6040516105ef9190611909565b908152602001604051809103902060050160018e6040516106109190611909565b908152602001604051809103902060060186805461062d9061189b565b80601f01602080910402602001604051908101604052809291908181526020018280546106599061189b565b80156106a65780601f1061067b576101008083540402835291602001916106a6565b820191906000526020600020905b81548152906001019060200180831161068957829003601f168201915b505050505096508580546106b99061189b565b80601f01602080910402602001604051908101604052809291908181526020018280546106e59061189b565b80156107325780601f1061070757610100808354040283529160200191610732565b820191906000526020600020905b81548152906001019060200180831161071557829003601f168201915b505050505095508480546107459061189b565b80601f01602080910402602001604051908101604052809291908181526020018280546107719061189b565b80156107be5780601f10610793576101008083540402835291602001916107be565b820191906000526020600020905b8154815290600101906020018083116107a157829003601f168201915b505050505094508280546107d19061189b565b80601f01602080910402602001604051908101604052809291908181526020018280546107fd9061189b565b801561084a5780601f1061081f5761010080835404028352916020019161084a565b820191906000526020600020905b81548152906001019060200180831161082d57829003601f168201915b5050505050925081805461085d9061189b565b80601f01602080910402602001604051908101604052809291908181526020018280546108899061189b565b80156108d65780601f106108ab576101008083540402835291602001916108d6565b820191906000526020600020905b8154815290600101906020018083116108b957829003601f168201915b505050505091508080546108e99061189b565b80601f01602080910402602001604051908101604052809291908181526020018280546109159061189b565b80156109625780601f1061093757610100808354040283529160200191610962565b820191906000526020600020905b81548152906001019060200180831161094557829003601f168201915b505050505090509650965096509650965096509650919395979092949650565b60606002805480602002602001604051908101604052809291908181526020016000905b82821015610a525783829060005260206000200180546109c59061189b565b80601f01602080910402602001604051908101604052809291908181526020018280546109f19061189b565b8015610a3e5780601f10610a1357610100808354040283529160200191610a3e565b820191906000526020600020905b815481529060010190602001808311610a2157829003601f168201915b5050505050815260200190600101906109a6565b50505050905090565b606080606060006060806060600088604051610a779190611909565b9081526020016040518091039020600001600089604051610a989190611909565b908152602001604051809103902060010160008a604051610ab99190611909565b908152602001604051809103902060020160008b604051610ada9190611909565b90815260200160405180910390206003015460008c604051610afc9190611909565b908152602001604051809103902060040160008d604051610b1d9190611909565b908152602001604051809103902060050160008e604051610b3e9190611909565b9081526020016040518091039020600601868054610b5b9061189b565b80601f0160208091040260200160405190810160405280929190818152602001828054610b879061189b565b8015610bd45780601f10610ba957610100808354040283529160200191610bd4565b820191906000526020600020905b815481529060010190602001808311610bb757829003601f168201915b50505050509650858054610be79061189b565b80601f0160208091040260200160405190810160405280929190818152602001828054610c139061189b565b8015610c605780601f10610c3557610100808354040283529160200191610c60565b820191906000526020600020905b815481529060010190602001808311610c4357829003601f168201915b50505050509550848054610c739061189b565b80601f0160208091040260200160405190810160405280929190818152602001828054610c9f9061189b565b8015610cec5780601f10610cc157610100808354040283529160200191610cec565b820191906000526020600020905b815481529060010190602001808311610ccf57829003601f168201915b50505050509450828054610cff9061189b565b80601f0160208091040260200160405190810160405280929190818152602001828054610d2b9061189b565b8015610d785780601f10610d4d57610100808354040283529160200191610d78565b820191906000526020600020905b815481529060010190602001808311610d5b57829003601f168201915b50505050509250818054610d8b9061189b565b80601f0160208091040260200160405190810160405280929190818152602001828054610db79061189b565b8015610e045780601f10610dd957610100808354040283529160200191610e04565b820191906000526020600020905b815481529060010190602001808311610de757829003601f168201915b50505050509150808054610e179061189b565b80601f0160208091040260200160405190810160405280929190818152602001828054610e439061189b565b8015610e905780601f10610e6557610100808354040283529160200191610e90565b820191906000526020600020905b815481529060010190602001808311610e7357829003601f168201915b505050505090509650965096509650965096509650919395979092949650565b600081604051602001610ec39190611909565b60405160208183030381529060405280519060200120600083604051610ee99190611909565b9081526020016040518091039020600201604051602001610f0a91906119b4565b604051602081830303815290604052805190602001201415610f2f5760019050610f34565b600090505b919050565b600081604051602001610f4c9190611909565b60405160208183030381529060405280519060200120600183604051610f729190611909565b9081526020016040518091039020600201604051602001610f9391906119b4565b604051602081830303815290604052805190602001201415610fb85760019050610fbd565b600090505b919050565b84604051602001610fd39190611909565b60405160208183030381529060405280519060200120600186604051610ff99190611909565b908152602001604051809103902060020160405160200161101a91906119b4565b60405160208183030381529060405280519060200120141561103b57600080fd5b8660018660405161104c9190611909565b908152602001604051809103902060000190805190602001906110709291906111f7565b50856001866040516110829190611909565b908152602001604051809103902060010190805190602001906110a69291906111f7565b50846001866040516110b89190611909565b908152602001604051809103902060020190805190602001906110dc9291906111f7565b50836001866040516110ee9190611909565b908152602001604051809103902060030181905550826001866040516111149190611909565b908152602001604051809103902060040190805190602001906111389291906111f7565b508160018660405161114a9190611909565b9081526020016040518091039020600501908051906020019061116e9291906111f7565b50806001866040516111809190611909565b908152602001604051809103902060060190805190602001906111a49291906111f7565b506003859080600181540180825580915050600190039060005260206000200160009091909190915090805190602001906111e09291906111f7565b5050505050505050565b6000600280549050905090565b8280546112039061189b565b90600052602060002090601f016020900481019282611225576000855561126c565b82601f1061123e57805160ff191683800117855561126c565b8280016001018555821561126c579182015b8281111561126b578251825591602001919060010190611250565b5b509050611279919061127d565b5090565b5b8082111561129657600081600090555060010161127e565b5090565b6000819050919050565b6112ad8161129a565b82525050565b60006020820190506112c860008301846112a4565b92915050565b600081519050919050565b600082825260208201905092915050565b6000819050602082019050919050565b600081519050919050565b600082825260208201905092915050565b60005b83811015611334578082015181840152602081019050611319565b83811115611343576000848401525b50505050565b6000601f19601f8301169050919050565b6000611365826112fa565b61136f8185611305565b935061137f818560208601611316565b61138881611349565b840191505092915050565b600061139f838361135a565b905092915050565b6000602082019050919050565b60006113bf826112ce565b6113c981856112d9565b9350836020820285016113db856112ea565b8060005b8581101561141757848403895281516113f88582611393565b9450611403836113a7565b925060208a019950506001810190506113df565b50829750879550505050505092915050565b6000602082019050818103600083015261144381846113b4565b905092915050565b6000604051905090565b600080fd5b600080fd5b600080fd5b600080fd5b7f4e487b7100000000000000000000000000000000000000000000000000000000600052604160045260246000fd5b6114a182611349565b810181811067ffffffffffffffff821117156114c0576114bf611469565b5b80604052505050565b60006114d361144b565b90506114df8282611498565b919050565b600067ffffffffffffffff8211156114ff576114fe611469565b5b61150882611349565b9050602081019050919050565b82818337600083830152505050565b6000611537611532846114e4565b6114c9565b90508281526020810184848401111561155357611552611464565b5b61155e848285611515565b509392505050565b600082601f83011261157b5761157a61145f565b5b813561158b848260208601611524565b91505092915050565b61159d8161129a565b81146115a857600080fd5b50565b6000813590506115ba81611594565b92915050565b600080600080600080600060e0888a0312156115df576115de611455565b5b600088013567ffffffffffffffff8111156115fd576115fc61145a565b5b6116098a828b01611566565b975050602088013567ffffffffffffffff81111561162a5761162961145a565b5b6116368a828b01611566565b965050604088013567ffffffffffffffff8111156116575761165661145a565b5b6116638a828b01611566565b95505060606116748a828b016115ab565b945050608088013567ffffffffffffffff8111156116955761169461145a565b5b6116a18a828b01611566565b93505060a088013567ffffffffffffffff8111156116c2576116c161145a565b5b6116ce8a828b01611566565b92505060c088013567ffffffffffffffff8111156116ef576116ee61145a565b5b6116fb8a828b01611566565b91505092959891949750929550565b6000602082840312156117205761171f611455565b5b600082013567ffffffffffffffff81111561173e5761173d61145a565b5b61174a84828501611566565b91505092915050565b600082825260208201905092915050565b600061176f826112fa565b6117798185611753565b9350611789818560208601611316565b61179281611349565b840191505092915050565b600060e08201905081810360008301526117b7818a611764565b905081810360208301526117cb8189611764565b905081810360408301526117df8188611764565b90506117ee60608301876112a4565b81810360808301526118008186611764565b905081810360a08301526118148185611764565b905081810360c08301526118288184611764565b905098975050505050505050565b60008115159050919050565b61184b81611836565b82525050565b60006020820190506118666000830184611842565b92915050565b7f4e487b7100000000000000000000000000000000000000000000000000000000600052602260045260246000fd5b600060028204905060018216806118b357607f821691505b602082108114156118c7576118c661186c565b5b50919050565b600081905092915050565b60006118e3826112fa565b6118ed81856118cd565b93506118fd818560208601611316565b80840191505092915050565b600061191582846118d8565b915081905092915050565b60008190508160005260206000209050919050565b600081546119428161189b565b61194c81866118cd565b945060018216600081146119675760018114611978576119ab565b60ff198316865281860193506119ab565b61198185611920565b60005b838110156119a357815481890152600182019150602081019050611984565b838801955050505b50505092915050565b60006119c08284611935565b91508190509291505056fea2646970667358221220e39bb3addf2409c86dc635a2ca463798e4fa7514bb4231fcb2fe34fa185a1bb164736f6c634300080a0033",
  "immutableReferences": {},
  "source": "// SPDX-License-Identifier: MIT\r\npragma solidity ^0.8.10;\r\n \r\ncontract KycContract {\r\n \r\n    struct registeredUserDetails {\r\n        string fullname;\r\n        string fathername;\r\n        string aadhar_number;\r\n        uint phone_number;\r\n        string useraddress;\r\n        string gender;\r\n        string dob;\r\n    }\r\n\r\n    struct verifiedUserDetails {\r\n        string fullname;\r\n        string fathername;\r\n        string aadhar_number;\r\n        uint phone_number;\r\n        string useraddress;\r\n        string gender;\r\n        string dob;\r\n    }\r\n\r\n    // Mappping\r\n    mapping(string =>registeredUserDetails) registeredUserMap;\r\n    mapping(string =>verifiedUserDetails) verifiedUserMap;\r\n\r\n    // Initializing array\r\n    string[] registeredUsersArray;\r\n    string[] verifiedUsersArray;\r\n\r\n    // set Function for setUser   \r\n    function setRegisteredUser (string memory _fullname, string memory _fathername, string memory _aadhar_number,\r\n                                uint _phone_number, string memory _useraddress, string memory _gender, string memory _dob)\r\n    public {\r\n        require(keccak256(abi.encodePacked((registeredUserMap[_aadhar_number].aadhar_number)))\r\n                        != keccak256(abi.encodePacked(_aadhar_number)));\r\n\r\n        registeredUserMap[_aadhar_number].fullname = _fullname ;\r\n        registeredUserMap[_aadhar_number].fathername = _fathername ;\r\n        registeredUserMap[_aadhar_number].aadhar_number = _aadhar_number ;\r\n        registeredUserMap[_aadhar_number].phone_number = _phone_number ;\r\n        registeredUserMap[_aadhar_number].useraddress = _useraddress ;\r\n        registeredUserMap[_aadhar_number].gender = _gender ;\r\n        registeredUserMap[_aadhar_number].dob = _dob ;\r\n \r\n        registeredUsersArray.push(_aadhar_number) ;\r\n    }\r\n \r\n    function setVerifiedUser (string memory _fullname, string memory _fathername, string memory _aadhar_number,\r\n                              uint _phone_number, string memory _useraddress, string memory _gender, string memory _dob)\r\n    public {\r\n        require(keccak256(abi.encodePacked((verifiedUserMap[_aadhar_number].aadhar_number)))\r\n            != keccak256(abi.encodePacked(_aadhar_number)));\r\n\r\n        verifiedUserMap[_aadhar_number].fullname = _fullname ;\r\n        verifiedUserMap[_aadhar_number].fathername = _fathername ;\r\n        verifiedUserMap[_aadhar_number].aadhar_number = _aadhar_number ;\r\n        verifiedUserMap[_aadhar_number].phone_number = _phone_number ;\r\n        verifiedUserMap[_aadhar_number].useraddress = _useraddress ;\r\n        verifiedUserMap[_aadhar_number].gender = _gender ;\r\n        verifiedUserMap[_aadhar_number].dob = _dob ;\r\n \r\n        verifiedUsersArray.push(_aadhar_number) ;\r\n    }\r\n\r\n    function getRegisteredUser (string memory _aadhar_number) view public\r\n        returns(string memory ,string memory, string memory, uint, string memory, string memory, string memory) {\r\n        return\r\n        (\r\n            registeredUserMap[_aadhar_number].fullname,\r\n            registeredUserMap[_aadhar_number].fathername,\r\n            registeredUserMap[_aadhar_number].aadhar_number,\r\n            registeredUserMap[_aadhar_number].phone_number,\r\n            registeredUserMap[_aadhar_number].useraddress,\r\n            registeredUserMap[_aadhar_number].gender,\r\n            registeredUserMap[_aadhar_number].dob\r\n        );\r\n    }\r\n \r\n    function getVerifiedUser (string memory _aadhar_number) view public\r\n        returns(string memory ,string memory, string memory, uint, string memory, string memory, string memory) {\r\n        return\r\n        (\r\n            verifiedUserMap[_aadhar_number].fullname,\r\n            verifiedUserMap[_aadhar_number].fathername,\r\n            verifiedUserMap[_aadhar_number].aadhar_number,\r\n            verifiedUserMap[_aadhar_number].phone_number,\r\n            verifiedUserMap[_aadhar_number].useraddress,\r\n            verifiedUserMap[_aadhar_number].gender,\r\n            verifiedUserMap[_aadhar_number].dob\r\n        );\r\n    }\r\n\r\n    function checkVerifiedUser (string memory _aadhar_number) view public returns(bool) {\r\n        if (keccak256(abi.encodePacked((verifiedUserMap[_aadhar_number].aadhar_number)))\r\n            == keccak256(abi.encodePacked(_aadhar_number)))\r\n            return true;\r\n        else\r\n            return false;\r\n    }\r\n    \r\n    function checkRegisteredUser (string memory _aadhar_number) view public returns(bool) {\r\n        if (keccak256(abi.encodePacked((registeredUserMap[_aadhar_number].aadhar_number))) \r\n            == keccak256(abi.encodePacked(_aadhar_number)))\r\n            return true;\r\n        else\r\n            return false;\r\n    }\r\n\r\n    function getCountOfRegisteredUsers() view public returns (uint)\r\n    {\r\n        return registeredUsersArray.length;\r\n    }\r\n\r\n    function getCountOfVerifiedUsers() view public returns (uint)\r\n    {\r\n        return verifiedUsersArray.length;\r\n    }\r\n\r\n    function getAllRegisteredIDs() view public returns(string[] memory)\r\n    {\r\n            return registeredUsersArray;\r\n    }\r\n\r\n    function getAllVerifiedIDs() view public returns(string[] memory)\r\n    {\r\n            return verifiedUsersArray;\r\n    }\r\n}",
  "sourcePath": "C:\\Users\\maver\\Desktop\\Mini Project Files\\ethereum-frontend-1\\contracts\\KycContract.sol",
  "compiler": {
    "name": "solc",
    "version": "0.8.10+commit.fc410830.Emscripten.clang"
  },
  "schemaVersion": "3.4.4",
  "updatedAt": "2022-01-17T15:16:39.223Z",
  "devdoc": {
    "kind": "dev",
    "methods": {},
    "version": 1
  },
  "userdoc": {
    "kind": "user",
    "methods": {},
    "version": 1
  }
}